{
  "_format": "hh-sol-artifact-1",
  "contractName": "Database",
  "sourceName": "contracts/Database.sol",
  "abi": [
    {
      "anonymous": false,
      "inputs": [
        {
          "indexed": true,
          "internalType": "bytes32",
          "name": "id",
          "type": "bytes32"
        },
        {
          "indexed": false,
          "internalType": "string",
          "name": "name",
          "type": "string"
        },
        {
          "indexed": false,
          "internalType": "uint256",
          "name": "timestamp",
          "type": "uint256"
        },
        {
          "indexed": false,
          "internalType": "bytes",
          "name": "value",
          "type": "bytes"
        }
      ],
      "name": "UpdatedValue",
      "type": "event"
    },
    {
      "inputs": [
        {
          "internalType": "uint32",
          "name": "srcChainId",
          "type": "uint32"
        },
        {
          "internalType": "address",
          "name": "srcContract",
          "type": "address"
        },
        {
          "internalType": "string",
          "name": "valuableName",
          "type": "string"
        }
      ],
      "name": "deriveDBId",
      "outputs": [
        {
          "internalType": "bytes32",
          "name": "id",
          "type": "bytes32"
        }
      ],
      "stateMutability": "pure",
      "type": "function"
    },
    {
      "inputs": [
        {
          "components": [
            {
              "internalType": "string",
              "name": "name",
              "type": "string"
            },
            {
              "internalType": "uint256",
              "name": "timestamp",
              "type": "uint256"
            },
            {
              "internalType": "bytes",
              "name": "value",
              "type": "bytes"
            }
          ],
          "internalType": "struct IDatabase.DataFeed[]",
          "name": "feed",
          "type": "tuple[]"
        }
      ],
      "name": "encode",
      "outputs": [
        {
          "internalType": "bytes",
          "name": "",
          "type": "bytes"
        }
      ],
      "stateMutability": "pure",
      "type": "function"
    },
    {
      "inputs": [
        {
          "internalType": "uint32",
          "name": "srcChainId",
          "type": "uint32"
        },
        {
          "internalType": "address",
          "name": "srcContract",
          "type": "address"
        },
        {
          "internalType": "string[]",
          "name": "valuableNames",
          "type": "string[]"
        }
      ],
      "name": "readDataFeed",
      "outputs": [
        {
          "internalType": "bytes[]",
          "name": "values",
          "type": "bytes[]"
        }
      ],
      "stateMutability": "view",
      "type": "function"
    },
    {
      "inputs": [
        {
          "internalType": "address",
          "name": "signer",
          "type": "address"
        }
      ],
      "name": "setSigner",
      "outputs": [],
      "stateMutability": "nonpayable",
      "type": "function"
    },
    {
      "inputs": [
        {
          "internalType": "bytes",
          "name": "data",
          "type": "bytes"
        },
        {
          "internalType": "bytes",
          "name": "signature",
          "type": "bytes"
        },
        {
          "internalType": "uint256",
          "name": "timestamp",
          "type": "uint256"
        },
        {
          "internalType": "uint32",
          "name": "srcChainId",
          "type": "uint32"
        },
        {
          "internalType": "address",
          "name": "srcContract",
          "type": "address"
        }
      ],
      "name": "storeData",
      "outputs": [],
      "stateMutability": "payable",
      "type": "function"
    },
    {
      "inputs": [
        {
          "internalType": "bytes",
          "name": "data",
          "type": "bytes"
        },
        {
          "internalType": "bytes",
          "name": "signature",
          "type": "bytes"
        }
      ],
      "name": "verifySignature",
      "outputs": [
        {
          "internalType": "bool",
          "name": "",
          "type": "bool"
        }
      ],
      "stateMutability": "view",
      "type": "function"
    }
  ],
  "bytecode": "0x608060405234801561001057600080fd5b506122dc806100206000396000f3fe6080604052600436106100555760003560e01c8063272c144a1461005a57806331f59122146100975780636c19e783146100d45780639368236c146100fd5780639b3925721461013a578063c9bde09a14610156575b600080fd5b34801561006657600080fd5b50610081600480360381019061007c9190610dbb565b610193565b60405161008e9190610f8a565b60405180910390f35b3480156100a357600080fd5b506100be60048036038101906100b99190611002565b610386565b6040516100cb919061109e565b60405180910390f35b3480156100e057600080fd5b506100fb60048036038101906100f691906110b9565b61050e565b005b34801561010957600080fd5b50610124600480360381019061011f919061113c565b610574565b60405161013191906111d3565b60405180910390f35b610154600480360381019061014f919061122b565b6105a0565b005b34801561016257600080fd5b5061017d60048036038101906101789190611417565b610613565b60405161018a919061149f565b60405180910390f35b60608282905067ffffffffffffffff8111156101b2576101b16112ec565b5b6040519080825280602002602001820160405280156101e557816020015b60608152602001906001900390816101d05790505b50905060005b8383905081101561037d5760003073ffffffffffffffffffffffffffffffffffffffff1663c9bde09a8888888887818110610229576102286114ba565b5b905060200281019061023b91906114f8565b6040518563ffffffff1660e01b815260040161025a94939291906115b7565b60206040518083038186803b15801561027257600080fd5b505afa158015610286573d6000803e3d6000fd5b505050506040513d601f19601f820116820180604052508101906102aa9190611623565b90506001600082815260200190815260200160002060020180546102cd9061167f565b80601f01602080910402602001604051908101604052809291908181526020018280546102f99061167f565b80156103465780601f1061031b57610100808354040283529160200191610346565b820191906000526020600020905b81548152906001019060200180831161032957829003601f168201915b505050505083838151811061035e5761035d6114ba565b5b6020026020010181905250508080610375906116e0565b9150506101eb565b50949350505050565b60008061041084848080601f016020809104026020016040519081016040528093929190818152602001838380828437600081840152601f19601f8201169050808301925050505050505061040288886040516020016103e7929190611759565b60405160208183030381529060405280519060200120610649565b61067990919063ffffffff16565b9050600073ffffffffffffffffffffffffffffffffffffffff168173ffffffffffffffffffffffffffffffffffffffff161415801561047a57503373ffffffffffffffffffffffffffffffffffffffff168173ffffffffffffffffffffffffffffffffffffffff16145b6104b9576040517f08c379a00000000000000000000000000000000000000000000000000000000081526004016104b0906117be565b60405180910390fd5b6104c2816106a0565b610501576040517f08c379a00000000000000000000000000000000000000000000000000000000081526004016104f89061182a565b60405180910390fd5b6001915050949350505050565b6000819080600181540180825580915050600190039060005260206000200160009091909190916101000a81548173ffffffffffffffffffffffffffffffffffffffff021916908373ffffffffffffffffffffffffffffffffffffffff16021790555050565b60608282604051602001610589929190611afb565b604051602081830303815290604052905092915050565b6105ac87878787610386565b6105eb576040517f08c379a00000000000000000000000000000000000000000000000000000000081526004016105e290611b6b565b60405180910390fd5b600087878101906105fc9190611db3565b905061060983838361074f565b5050505050505050565b600083838360405160200161062a93929190611ec1565b6040516020818303038152906040528051906020012090509392505050565b60008160405160200161065c9190611f67565b604051602081830303815290604052805190602001209050919050565b6000806000610688858561084b565b915091506106958161089d565b819250505092915050565b600080600090505b600080549050811015610744578273ffffffffffffffffffffffffffffffffffffffff16600082815481106106e0576106df6114ba565b5b9060005260206000200160009054906101000a900473ffffffffffffffffffffffffffffffffffffffff1673ffffffffffffffffffffffffffffffffffffffff16141561073157600191505061074a565b808061073c906116e0565b9150506106a8565b50600090505b919050565b60005b81518110156108455760008282815181106107705761076f6114ba565b5b60200260200101519050600061078b86868460000151610613565b9050816001600083815260200190815260200160002060008201518160000190805190602001906107bd929190610b7f565b506020820151816001015560408201518160020190805190602001906107e4929190610c05565b50905050807f3129d2dd18ed07d956b83f5b1f4bb34ce488c421c8e030af4610ee30d2655e6483600001518460200151856040015160405161082893929190611fd5565b60405180910390a25050808061083d906116e0565b915050610752565b50505050565b60008060418351141561088d5760008060006020860151925060408601519150606086015160001a905061088187828585610a72565b94509450505050610896565b60006002915091505b9250929050565b600060048111156108b1576108b061201a565b5b8160048111156108c4576108c361201a565b5b14156108cf57610a6f565b600160048111156108e3576108e261201a565b5b8160048111156108f6576108f561201a565b5b1415610937576040517f08c379a000000000000000000000000000000000000000000000000000000000815260040161092e90612095565b60405180910390fd5b6002600481111561094b5761094a61201a565b5b81600481111561095e5761095d61201a565b5b141561099f576040517f08c379a000000000000000000000000000000000000000000000000000000000815260040161099690612101565b60405180910390fd5b600360048111156109b3576109b261201a565b5b8160048111156109c6576109c561201a565b5b1415610a07576040517f08c379a00000000000000000000000000000000000000000000000000000000081526004016109fe90612193565b60405180910390fd5b600480811115610a1a57610a1961201a565b5b816004811115610a2d57610a2c61201a565b5b1415610a6e576040517f08c379a0000000000000000000000000000000000000000000000000000000008152600401610a6590612225565b60405180910390fd5b5b50565b6000807f7fffffffffffffffffffffffffffffff5d576e7357a4501ddfe92f46681b20a08360001c1115610aad576000600391509150610b76565b601b8560ff1614158015610ac55750601c8560ff1614155b15610ad7576000600491509150610b76565b600060018787878760405160008152602001604052604051610afc9493929190612261565b6020604051602081039080840390855afa158015610b1e573d6000803e3d6000fd5b505050602060405103519050600073ffffffffffffffffffffffffffffffffffffffff168173ffffffffffffffffffffffffffffffffffffffff161415610b6d57600060019250925050610b76565b80600092509250505b94509492505050565b828054610b8b9061167f565b90600052602060002090601f016020900481019282610bad5760008555610bf4565b82601f10610bc657805160ff1916838001178555610bf4565b82800160010185558215610bf4579182015b82811115610bf3578251825591602001919060010190610bd8565b5b509050610c019190610c8b565b5090565b828054610c119061167f565b90600052602060002090601f016020900481019282610c335760008555610c7a565b82601f10610c4c57805160ff1916838001178555610c7a565b82800160010185558215610c7a579182015b82811115610c79578251825591602001919060010190610c5e565b5b509050610c879190610c8b565b5090565b5b80821115610ca4576000816000905550600101610c8c565b5090565b6000604051905090565b600080fd5b600080fd5b600063ffffffff82169050919050565b610cd581610cbc565b8114610ce057600080fd5b50565b600081359050610cf281610ccc565b92915050565b600073ffffffffffffffffffffffffffffffffffffffff82169050919050565b6000610d2382610cf8565b9050919050565b610d3381610d18565b8114610d3e57600080fd5b50565b600081359050610d5081610d2a565b92915050565b600080fd5b600080fd5b600080fd5b60008083601f840112610d7b57610d7a610d56565b5b8235905067ffffffffffffffff811115610d9857610d97610d5b565b5b602083019150836020820283011115610db457610db3610d60565b5b9250929050565b60008060008060608587031215610dd557610dd4610cb2565b5b6000610de387828801610ce3565b9450506020610df487828801610d41565b935050604085013567ffffffffffffffff811115610e1557610e14610cb7565b5b610e2187828801610d65565b925092505092959194509250565b600081519050919050565b600082825260208201905092915050565b6000819050602082019050919050565b600081519050919050565b600082825260208201905092915050565b60005b83811015610e95578082015181840152602081019050610e7a565b83811115610ea4576000848401525b50505050565b6000601f19601f8301169050919050565b6000610ec682610e5b565b610ed08185610e66565b9350610ee0818560208601610e77565b610ee981610eaa565b840191505092915050565b6000610f008383610ebb565b905092915050565b6000602082019050919050565b6000610f2082610e2f565b610f2a8185610e3a565b935083602082028501610f3c85610e4b565b8060005b85811015610f785784840389528151610f598582610ef4565b9450610f6483610f08565b925060208a01995050600181019050610f40565b50829750879550505050505092915050565b60006020820190508181036000830152610fa48184610f15565b905092915050565b60008083601f840112610fc257610fc1610d56565b5b8235905067ffffffffffffffff811115610fdf57610fde610d5b565b5b602083019150836001820283011115610ffb57610ffa610d60565b5b9250929050565b6000806000806040858703121561101c5761101b610cb2565b5b600085013567ffffffffffffffff81111561103a57611039610cb7565b5b61104687828801610fac565b9450945050602085013567ffffffffffffffff81111561106957611068610cb7565b5b61107587828801610fac565b925092505092959194509250565b60008115159050919050565b61109881611083565b82525050565b60006020820190506110b3600083018461108f565b92915050565b6000602082840312156110cf576110ce610cb2565b5b60006110dd84828501610d41565b91505092915050565b60008083601f8401126110fc576110fb610d56565b5b8235905067ffffffffffffffff81111561111957611118610d5b565b5b60208301915083602082028301111561113557611134610d60565b5b9250929050565b6000806020838503121561115357611152610cb2565b5b600083013567ffffffffffffffff81111561117157611170610cb7565b5b61117d858286016110e6565b92509250509250929050565b600082825260208201905092915050565b60006111a582610e5b565b6111af8185611189565b93506111bf818560208601610e77565b6111c881610eaa565b840191505092915050565b600060208201905081810360008301526111ed818461119a565b905092915050565b6000819050919050565b611208816111f5565b811461121357600080fd5b50565b600081359050611225816111ff565b92915050565b600080600080600080600060a0888a03121561124a57611249610cb2565b5b600088013567ffffffffffffffff81111561126857611267610cb7565b5b6112748a828b01610fac565b9750975050602088013567ffffffffffffffff81111561129757611296610cb7565b5b6112a38a828b01610fac565b955095505060406112b68a828b01611216565b93505060606112c78a828b01610ce3565b92505060806112d88a828b01610d41565b91505092959891949750929550565b600080fd5b7f4e487b7100000000000000000000000000000000000000000000000000000000600052604160045260246000fd5b61132482610eaa565b810181811067ffffffffffffffff82111715611343576113426112ec565b5b80604052505050565b6000611356610ca8565b9050611362828261131b565b919050565b600067ffffffffffffffff821115611382576113816112ec565b5b61138b82610eaa565b9050602081019050919050565b82818337600083830152505050565b60006113ba6113b584611367565b61134c565b9050828152602081018484840111156113d6576113d56112e7565b5b6113e1848285611398565b509392505050565b600082601f8301126113fe576113fd610d56565b5b813561140e8482602086016113a7565b91505092915050565b6000806000606084860312156114305761142f610cb2565b5b600061143e86828701610ce3565b935050602061144f86828701610d41565b925050604084013567ffffffffffffffff8111156114705761146f610cb7565b5b61147c868287016113e9565b9150509250925092565b6000819050919050565b61149981611486565b82525050565b60006020820190506114b46000830184611490565b92915050565b7f4e487b7100000000000000000000000000000000000000000000000000000000600052603260045260246000fd5b600080fd5b600080fd5b600080fd5b60008083356001602003843603038112611515576115146114e9565b5b80840192508235915067ffffffffffffffff821115611537576115366114ee565b5b602083019250600182023603831315611553576115526114f3565b5b509250929050565b61156481610cbc565b82525050565b61157381610d18565b82525050565b600082825260208201905092915050565b60006115968385611579565b93506115a3838584611398565b6115ac83610eaa565b840190509392505050565b60006060820190506115cc600083018761155b565b6115d9602083018661156a565b81810360408301526115ec81848661158a565b905095945050505050565b61160081611486565b811461160b57600080fd5b50565b60008151905061161d816115f7565b92915050565b60006020828403121561163957611638610cb2565b5b60006116478482850161160e565b91505092915050565b7f4e487b7100000000000000000000000000000000000000000000000000000000600052602260045260246000fd5b6000600282049050600182168061169757607f821691505b602082108114156116ab576116aa611650565b5b50919050565b7f4e487b7100000000000000000000000000000000000000000000000000000000600052601160045260246000fd5b60006116eb826111f5565b91507fffffffffffffffffffffffffffffffffffffffffffffffffffffffffffffffff82141561171e5761171d6116b1565b5b600182019050919050565b600081905092915050565b60006117408385611729565b935061174d838584611398565b82840190509392505050565b6000611766828486611734565b91508190509392505050565b7f5369676e617475726520646f65736e2774206d61746368000000000000000000600082015250565b60006117a8601783611579565b91506117b382611772565b602082019050919050565b600060208201905081810360008301526117d78161179b565b9050919050565b7f4e6f7420617574686f72697a6564207369676e65720000000000000000000000600082015250565b6000611814601583611579565b915061181f826117de565b602082019050919050565b6000602082019050818103600083015261184381611807565b9050919050565b600082825260208201905092915050565b6000819050919050565b600080fd5b600080fd5b600080fd5b600080833560016020038436030381126118915761189061186f565b5b83810192508235915060208301925067ffffffffffffffff8211156118b9576118b8611865565b5b6001820236038413156118cf576118ce61186a565b5b509250929050565b600082825260208201905092915050565b60006118f483856118d7565b9350611901838584611398565b61190a83610eaa565b840190509392505050565b60006119246020840184611216565b905092915050565b611935816111f5565b82525050565b600080833560016020038436030381126119585761195761186f565b5b83810192508235915060208301925067ffffffffffffffff8211156119805761197f611865565b5b6001820236038413156119965761199561186a565b5b509250929050565b60006119aa8385610e66565b93506119b7838584611398565b6119c083610eaa565b840190509392505050565b6000606083016119de6000840184611874565b85830360008701526119f18382846118e8565b92505050611a026020840184611915565b611a0f602086018261192c565b50611a1d604084018461193b565b8583036040870152611a3083828461199e565b925050508091505092915050565b6000611a4a83836119cb565b905092915050565b600082356001606003833603038112611a6e57611a6d61186f565b5b82810191505092915050565b6000602082019050919050565b6000611a93838561184a565b935083602084028501611aa58461185b565b8060005b87811015611ae9578484038952611ac08284611a52565b611aca8582611a3e565b9450611ad583611a7a565b925060208a01995050600181019050611aa9565b50829750879450505050509392505050565b60006020820190508181036000830152611b16818486611a87565b90509392505050565b7f5369676e6174757265206d69736d617463680000000000000000000000000000600082015250565b6000611b55601283611579565b9150611b6082611b1f565b602082019050919050565b60006020820190508181036000830152611b8481611b48565b9050919050565b600067ffffffffffffffff821115611ba657611ba56112ec565b5b602082029050602081019050919050565b600080fd5b600080fd5b600067ffffffffffffffff821115611bdc57611bdb6112ec565b5b611be582610eaa565b9050602081019050919050565b6000611c05611c0084611bc1565b61134c565b905082815260208101848484011115611c2157611c206112e7565b5b611c2c848285611398565b509392505050565b600082601f830112611c4957611c48610d56565b5b8135611c59848260208601611bf2565b91505092915050565b600060608284031215611c7857611c77611bb7565b5b611c82606061134c565b9050600082013567ffffffffffffffff811115611ca257611ca1611bbc565b5b611cae848285016113e9565b6000830152506020611cc284828501611216565b602083015250604082013567ffffffffffffffff811115611ce657611ce5611bbc565b5b611cf284828501611c34565b60408301525092915050565b6000611d11611d0c84611b8b565b61134c565b90508083825260208201905060208402830185811115611d3457611d33610d60565b5b835b81811015611d7b57803567ffffffffffffffff811115611d5957611d58610d56565b5b808601611d668982611c62565b85526020850194505050602081019050611d36565b5050509392505050565b600082601f830112611d9a57611d99610d56565b5b8135611daa848260208601611cfe565b91505092915050565b600060208284031215611dc957611dc8610cb2565b5b600082013567ffffffffffffffff811115611de757611de6610cb7565b5b611df384828501611d85565b91505092915050565b60008160e01b9050919050565b6000611e1482611dfc565b9050919050565b611e2c611e2782610cbc565b611e09565b82525050565b60008160601b9050919050565b6000611e4a82611e32565b9050919050565b6000611e5c82611e3f565b9050919050565b611e74611e6f82610d18565b611e51565b82525050565b600081519050919050565b600081905092915050565b6000611e9b82611e7a565b611ea58185611e85565b9350611eb5818560208601610e77565b80840191505092915050565b6000611ecd8286611e1b565b600482019150611edd8285611e63565b601482019150611eed8284611e90565b9150819050949350505050565b7f19457468657265756d205369676e6564204d6573736167653a0a333200000000600082015250565b6000611f30601c83611e85565b9150611f3b82611efa565b601c82019050919050565b6000819050919050565b611f61611f5c82611486565b611f46565b82525050565b6000611f7282611f23565b9150611f7e8284611f50565b60208201915081905092915050565b6000611f9882611e7a565b611fa28185611579565b9350611fb2818560208601610e77565b611fbb81610eaa565b840191505092915050565b611fcf816111f5565b82525050565b60006060820190508181036000830152611fef8186611f8d565b9050611ffe6020830185611fc6565b8181036040830152612010818461119a565b9050949350505050565b7f4e487b7100000000000000000000000000000000000000000000000000000000600052602160045260246000fd5b7f45434453413a20696e76616c6964207369676e61747572650000000000000000600082015250565b600061207f601883611579565b915061208a82612049565b602082019050919050565b600060208201905081810360008301526120ae81612072565b9050919050565b7f45434453413a20696e76616c6964207369676e6174757265206c656e67746800600082015250565b60006120eb601f83611579565b91506120f6826120b5565b602082019050919050565b6000602082019050818103600083015261211a816120de565b9050919050565b7f45434453413a20696e76616c6964207369676e6174757265202773272076616c60008201527f7565000000000000000000000000000000000000000000000000000000000000602082015250565b600061217d602283611579565b915061218882612121565b604082019050919050565b600060208201905081810360008301526121ac81612170565b9050919050565b7f45434453413a20696e76616c6964207369676e6174757265202776272076616c60008201527f7565000000000000000000000000000000000000000000000000000000000000602082015250565b600061220f602283611579565b915061221a826121b3565b604082019050919050565b6000602082019050818103600083015261223e81612202565b9050919050565b600060ff82169050919050565b61225b81612245565b82525050565b60006080820190506122766000830187611490565b6122836020830186612252565b6122906040830185611490565b61229d6060830184611490565b9594505050505056fea26469706673582212205ab42399b6d896ca15e71c9400e17eed54e91c5076f99910b2a359685075ce3d64736f6c63430008090033",
  "linkReferences": {},
  "deployedLinkReferences": {}
}